:100000000C942A000C9447000C9447000C94470071
:100010000C9447000C9447000C9447000C940D205E
:100020000C9447000C9447000C9447000C94470034
:100030000C9447000C9440200C9447000C9447000B
:100040000C9447000C9447000C9447000C94470014
:100050000C94470011241FBECFE5D8E0DEBFCDBF12
:1000600011E0A0E6B0E0EEE8F3E402C005900D92E6
:10007000A232B107D9F711E0A2E2B1E001C01D92AE
:10008000AD3AB107E1F70E9447150C94C5210C94D5
:100090000000EF92FF920F931F937B018C0120E0F1
:1000A00030E040E05FE40E94F50388238CF0C80153
:1000B000B70120E030E040E05FE40E94C1010E940F
:1000C00055049B01AC01205030404040504806C0D0
:1000D000C801B7010E9455049B01AC01B901CA01D6
:1000E0001F910F91FF90EF900895A0E0B0E0EBE733
:1000F000F0E00C944921DC012B01FA019C91923033
:1001000008F439C1EB018881823008F433C194309E
:1001100069F4843009F02FC111969C91119789815F
:10012000981709F428C1A8E7B0E025C1843009F484
:1001300021C18230A9F4923009F01DC19A01AD01AC
:1001400088E0EA010990AE01E90109929E0181501F
:10015000C1F7E201898111969C918923818308C1AD
:10016000923009F407C112962D903C901397EB0141
:100170008A819B811496AD90BD90CD90DC901797AD
:10018000EC80FD800E811F819101281B390BB90184
:1001900037FF04C066277727621B730B6032710537
:1001A0000CF061C0121613066CF537014801062EDB
:1001B00004C096948794779467940A94D2F721E0C8
:1001C00030E040E050E004C0220F331F441F551FB1
:1001D0006A95D2F721503040404050402E213F21B7
:1001E00040235123211531054105510521F021E01E
:1001F00030E040E050E079018A01E628F72808293C
:1002000019293CC0232BD1F1260E371E350146019A
:10021000062E04C096948794779467940A94D2F734
:1002200021E030E040E050E004C0220F331F441FC3
:10023000551F6A95D2F721503040404050402A2146
:100240003B214C215D21211531054105510521F04E
:1002500021E030E040E050E059016A01A628B728CB
:10026000C828D9280BC0821593052CF01C01AA249C
:10027000BB24650103C0EE24FF24870111969C91E5
:10028000D20111968C91981709F445C0992339F041
:10029000A80197012A193B094C095D0906C0A6016E
:1002A00095012E193F09400B510B57FD08C01182D3
:1002B0003382228224833583468357831DC081E0A5
:1002C00081833382228288279927DC01821B930B4A
:1002D000A40BB50B84839583A683B7830DC0220F2F
:1002E000331F441F551F24833583468357838281E0
:1002F000938101979383828324813581468157813D
:10030000DA01C9010197A109B1098F5F9F4FAF4F72
:10031000BF4328F30BC0918333822282EA0CFB1C7B
:100320000C1D1D1DE482F5820683178383E0808304
:10033000248135814681578157FF1AC0C901AA27F8
:1003400097FDA095BA2F81709070A070B0705695EF
:10035000479537952795822B932BA42BB52B848318
:100360009583A683B7838281938101969383828349
:10037000DF0101C0D201CD01CDB7DEB7E2E10C94BF
:100380006521A0E2B0E0E7ECF1E00C94552169832F
:100390007A838B839C832D833E834F835887E9E048
:1003A000EE2EF12CEC0EFD1ECE010196B7010E943F
:1003B0007E058E010F5E1F4FCE010596B8010E948B
:1003C0007E058A8991E089278A8BC701B801AE0131
:1003D000475E5F4F0E9475000E94A904A096E6E068
:1003E0000C947121A0E2B0E0E8EFF1E00C9455210B
:1003F00069837A838B839C832D833E834F835887C5
:10040000F9E0EF2EF12CEC0EFD1ECE010196B701A6
:100410000E947E058E010F5E1F4FCE010596B8012A
:100420000E947E05C701B801AE01475E5F4F0E9482
:1004300075000E94A904A096E6E00C947121A0E248
:10044000B0E0E5E2F2E00C94492169837A838B8382
:100450009C832D833E834F835887CE010196BE0136
:10046000675F7F4F0E947E05CE010596BE016F5EDD
:100470007F4F0E947E059985923088F0898982306D
:10048000C8F0943019F4823051F404C0843029F457
:10049000923081F488E790E0C6C0923049F420E0C1
:1004A0009A858A89981321E02A87CE010996BBC0D4
:1004B000823049F420E09A858A89981321E02A8BBA
:1004C000CE014196B0C02D843E844F8458886D88FB
:1004D0007E888F88988CEE24FF248701AA24BB2471
:1004E000650140E050E060E070E0E0E0F0E0C10174
:1004F00081709070892BE9F0E60CF71C081D191D1E
:100500009A01AB012A0D3B1D4C1D5D1D80E090E062
:10051000A0E0B0E0E614F7040805190520F481E036
:1005200090E0A0E0B0E0BA01A901480F591F6A1F8E
:100530007B1FAA0CBB1CCC1CDD1C97FE08C081E0F5
:1005400090E0A0E0B0E0A82AB92ACA2ADB2A3196B6
:10055000E032F10549F0660C771C881C991C569412
:10056000479437942794C3CFFA85EA892B893C892D
:100570008B859C85280F391F2E5F3F4F17C0CA01FE
:1005800081709070892B61F016950795F794E79428
:1005900080E090E0A0E0B0E8E82AF92A0A2B1B2BC3
:1005A00076956795579547952F5F3F4F77FDE7CF36
:1005B0000CC0440F551F661F771F17FD4160EE0CDE
:1005C000FF1C001F111F21503040403090E05907A0
:1005D00090E0690790E4790760F32B8F3C8FDB0193
:1005E000CA018F779070A070B07080349105A1051A
:1005F000B10561F447FD0AC0E114F10401051105DC
:1006000029F0405C5F4F6F4F7F4F40781A8EFE1786
:1006100011F081E08A8F4D8F5E8F6F8F78A383E01A
:10062000898FCE0149960E94A904A096E2E10C941C
:100630006521A8E1B0E0EFE1F3E00C94512169837A
:100640007A838B839C832D833E834F835887B9E0C5
:10065000EB2EF12CEC0EFD1ECE010196B7010E948F
:100660007E058E010F5E1F4FCE010596B8010E94D8
:100670007E052985223008F47EC03989323010F495
:10068000B8017CC08A859A8989278A87243011F02D
:10069000223031F4231709F06EC068E770E06EC0B5
:1006A000343039F41D861E861F86188A1C861B86E8
:1006B00004C0323021F484E08987B7015FC02B8504
:1006C0003C858B899C89281B390B3C872B87ED84C3
:1006D000FE840F851889AD88BE88CF88D88CEA142F
:1006E000FB040C051D0540F4EE0CFF1C001F111F40
:1006F000215030403C872B8720E030E040E050E044
:1007000080E090E0A0E0B0E460E070E0EA14FB0478
:100710000C051D0540F0282B392B4A2B5B2BEA18C2
:10072000FB080C091D09B695A79597958795EE0CC2
:10073000FF1C001F111F6F5F7F4F6F31710531F775
:10074000DA01C9018F779070A070B0708034910584
:10075000A105B10561F427FD0AC0E114F10401050A
:10076000110529F0205C3F4F4F4F5F4F20782D87B8
:100770003E874F87588BBE01675F7F4FCB010E943A
:10078000A9046896EAE00C946D21A8E1B0E0EBECD6
:10079000F3E00C94552169837A838B839C832D83AA
:1007A0003E834F83588789E0E82EF12CEC0EFD1E26
:1007B000CE010196B7010E947E058E010F5E1F4F8C
:1007C000CE010596B8010E947E058985823040F0F1
:1007D0008989823028F0C701B8010E94F60501C05E
:1007E0008FEF6896E6E00C947121A8E1B0E0EBEFA2
:1007F000F3E00C94552169837A838B839C832D834A
:100800003E834F83588789E0E82EF12CEC0EFD1EC5
:10081000CE010196B7010E947E058E010F5E1F4F2B
:10082000CE010596B8010E947E058985823040F090
:100830008989823028F0C701B8010E94F60501C0FD
:100840008FEF6896E6E00C947121A8E1B0E0EBE24E
:10085000F4E00C94552169837A838B839C832D83E8
:100860003E834F83588789E0E82EF12CEC0EFD1E65
:10087000CE010196B7010E947E058E010F5E1F4FCB
:10088000CE010596B8010E947E058985823040F030
:100890008989823028F0C701B8010E94F60501C09D
:1008A00081E06896E6E00C947121ACE0B0E0EBE505
:1008B000F4E00C94592169837A838B839C83CE0165
:1008C0000196BE016B5F7F4F0E947E058D81823055
:1008D00061F1823050F1843021F48E81882351F10E
:1008E0002EC02F81388537FD20C06E812F31310514
:1008F0001CF06623F9F023C08EE190E0821B930B7D
:1009000029853A854B855C8504C056954795379572
:1009100027958A95D2F76623B1F05095409530958A
:1009200021953F4F4F4F5F4F0EC020E030E040E039
:1009300050E009C02FEF3FEF4FEF5FE704C020E02A
:1009400030E040E050E8B901CA012C96E2E00C9496
:100950007521DF92EF92FF920F931F93FC01E480C9
:10096000F58006811781D1808081823048F480E053
:1009700090E0A0E1B0E0E82AF92A0A2B1B2BA5C0E1
:10098000843009F49FC0823021F4EE24FF248701D3
:1009900005C0E114F1040105110519F4E0E0F0E0EF
:1009A00096C0628173819FEF623879070CF05BC05B
:1009B00022E83FEF261B370B2A3131052CF020E0CF
:1009C00030E040E050E02AC0B801A701022E04C088
:1009D00076956795579547950A94D2F781E090E010
:1009E000A0E0B0E004C0880F991FAA1FBB1F2A9582
:1009F000D2F70197A109B1098E219F21A023B1232C
:100A00000097A105B10521F081E090E0A0E0B0E001
:100A10009A01AB01282B392B4A2B5B2BDA01C90138
:100A20008F779070A070B07080349105A105B105EA
:100A300039F427FF09C0205C3F4F4F4F5F4F04C080
:100A4000215C3F4F4F4F5F4FE0E0F0E02030A0E0EF
:100A50003A07A0E04A07A0E45A0710F0E1E0F0E00E
:100A600079018A0127C06038710564F5FB01E158FE
:100A7000FF4FD801C7018F779070A070B07080349D
:100A80009105A105B10539F4E7FE0DC080E490E0C1
:100A9000A0E0B0E004C08FE390E0A0E0B0E0E80E9A
:100AA000F91E0A1F1B1F17FF05C016950795F7941F
:100AB000E794319687E016950795F794E7948A9521
:100AC000D1F705C0EE24FF248701EFEFF0E06E2F91
:100AD000679566276795902F9F77D794DD24D794E5
:100AE0008E2F8695492F462B582F5D29B701CA01B5
:100AF0001F910F91FF90EF90DF900895FC01DB01B3
:100B0000408151812281622F6F7770E0221F22275E
:100B1000221F9381892F880F822B282F30E0991F65
:100B20009927991F11969C93119721153105A9F5C5
:100B3000411551056105710511F482E037C082E865
:100B40009FEF13969C938E9312979A01AB0167E0E7
:100B5000220F331F441F551F6A95D1F783E08C93F2
:100B60000DC0220F331F441F551F12968D919C916B
:100B70001397019713969C938E931297203080E0E1
:100B8000380780E0480780E4580758F314962D93FF
:100B90003D934D935C93179708952F3F310579F45A
:100BA000411551056105710519F484E08C93089590
:100BB00064FF03C081E08C9312C01C9210C02F57B9
:100BC000304013963C932E93129783E08C9387E0EA
:100BD000440F551F661F771F8A95D1F770641496CE
:100BE0004D935D936D937C93179708951F93DC014C
:100BF000FB019C91923008F447C08081823008F458
:100C000043C0943051F411961C91843099F5818140
:100C1000682F70E0611B71093FC0843021F0923071
:100C200031F48230B9F18181882389F12DC0119688
:100C30001C9111978230F1F081811817D9F4129626
:100C40002D913C911397828193818217930794F0A1
:100C500028173907BCF014968D919D910D90BC9189
:100C6000A02D2481358146815781281739074A07ED
:100C70005B0718F4112341F00AC082179307A407F9
:100C8000B50740F4112319F061E070E005C06FEF83
:100C90007FEF02C060E070E0CB011F910895DF9309
:100CA000CF93CDB7DEB729970FB6F894DEBF0FBE4E
:100CB000CDBF1B82CFC18B8187708A838B81869544
:100CC0008695869589838B81882F90E0880F991F60
:100CD000FC01E058FF4F8081882309F06FC08981B3
:100CE000282F30E0398728878885998581309105BC
:100CF00049F128853985223031052CF4888599857C
:100D0000009761F0A4C1288539852230310571F141
:100D10008885998583309105E9F199C1AAE3B0E00E
:100D2000EAE3F0E08081482F8A81282F30E081E0DB
:100D300090E0022E02C0880F991F0A94E2F7842BDC
:100D40008C9385C1A7E3B0E0E7E3F0E08081482F12
:100D50008A81282F30E081E090E0022E02C0880FC7
:100D6000991F0A94E2F7842B8C9371C1A4E3B0E03D
:100D7000E4E3F0E08081482F8A81282F30E081E091
:100D800090E0022E02C0880F991F0A94E2F7842B8C
:100D90008C935DC1A1E3B0E0E1E3F0E08081482FF6
:100DA0008A81282F30E081E090E0022E02C0880F77
:100DB000991F0A94E2F7842B8C9349C18B81882F69
:100DC00090E0880F991FFC01E058FF4F808181302F
:100DD00009F074C08981282F30E03F832E838E81F3
:100DE0009F818130910559F12E813F81223031055B
:100DF0002CF48E819F81009769F029C12E813F815B
:100E00002230310589F18E819F818330910509F46B
:100E100040C01DC1AAE3B0E0EAE3F0E08081482FC2
:100E20008A81282F30E081E090E0022E02C0880FF6
:100E3000991F0A94E2F7809584238C9308C1A7E355
:100E4000B0E0E7E3F0E08081482F8A81282F30E08E
:100E500081E090E0022E02C0880F991F0A94E2F709
:100E6000809584238C93F3C0A4E3B0E0E4E3F0E046
:100E70008081482F8A81282F30E081E090E0022E87
:100E800002C0880F991F0A94E2F7809584238C93FF
:100E9000DEC0A1E3B0E0E1E3F0E08081482F8A8189
:100EA000282F30E081E090E0022E02C0880F991FC9
:100EB0000A94E2F7809584238C93C9C08B81882F94
:100EC00090E0880F991FFC01E058FF4F808182302D
:100ED00009F0BDC08981282F30E03D832C838C81AF
:100EE0009D818130910509F43EC02C813D812230E5
:100EF00031052CF48C819D81009771F0A8C02C8164
:100F00003D812230310509F455C08C819D818330AB
:100F1000910509F476C09BC0AAE3B0E0EAE3F0E0F3
:100F20008081482F8A81282F30E081E090E002C044
:100F3000880F991F2A95E2F7809584238C93ABE361
:100F4000B0E0EBE3F0E08081482F8A81282F30E089
:100F500081E090E0022E02C0880F991F0A94E2F708
:100F6000842B8C9374C0A7E3B0E0E7E3F0E08081CA
:100F7000482F8A81282F30E081E090E002C0880F5E
:100F8000991F2A95E2F7809584238C93A8E3B0E01B
:100F9000E8E3F0E08081482F8A81282F30E081E06B
:100FA00090E0022E02C0880F991F0A94E2F7842B6A
:100FB0008C934DC0A4E3B0E0E4E3F0E08081482FDF
:100FC0008A81282F30E081E090E002C0880F991FCD
:100FD0002A95E2F7809584238C93A5E3B0E0E5E3BE
:100FE000F0E08081482F8A81282F30E081E090E076
:100FF000022E02C0880F991F0A94E2F7842B8C936B
:1010000026C0A1E3B0E0E1E3F0E08081482F8A81CF
:10101000282F30E081E090E002C0880F991F2A95C8
:10102000E2F7809584238C93A2E3B0E0E2E3F0E062
:101030008081482F8A81282F30E081E090E0022EC5
:1010400002C0880F991F0A94E2F7842B8C938B813E
:101050008F5F8B838B81803208F42DCE29960FB65B
:10106000F894DEBF0FBECDBFCF91DF910895DF931F
:10107000CF9300D000D00F92CDB7DEB78B838B819A
:1010800087708A838B8186958695869589838981E9
:10109000282F30E03D832C838C819D818130910508
:1010A00049F12C813D81223031052CF48C819D81C8
:1010B000009761F05AC02C813D812230310571F1D9
:1010C0008C819D8183309105E9F14FC0ABE3B0E0A5
:1010D000EBE3F0E08081482F8A81282F30E081E027
:1010E00090E0022E02C0880F991F0A94E2F7842B29
:1010F0008C933BC0A8E3B0E0E8E3F0E08081482FA8
:101100008A81282F30E081E090E0022E02C0880F13
:10111000991F0A94E2F7842B8C9327C0A5E3B0E0D3
:10112000E5E3F0E08081482F8A81282F30E081E0DC
:1011300090E0022E02C0880F991F0A94E2F7842BD8
:101140008C9313C0A2E3B0E0E2E3F0E08081482F8B
:101150008A81282F30E081E090E0022E02C0880FC3
:10116000991F0A94E2F7842B8C930F900F900F90A5
:101170000F900F90CF91DF910895DF93CF9300D020
:1011800000D00F92CDB7DEB78B838B8187708A83B7
:101190008B8186958695869589838981282F30E075
:1011A0003D832C838C819D818130910559F12C8167
:1011B0003D81223031052CF48C819D81009769F0AE
:1011C0005FC02C813D812230310589F18C819D8168
:1011D0008330910509F440C053C0ABE3B0E0EBE3CA
:1011E000F0E08081482F8A81282F30E081E090E074
:1011F000022E02C0880F991F0A94E2F7809584237B
:101200008C933EC0A8E3B0E0E8E3F0E08081482F93
:101210008A81282F30E081E090E0022E02C0880F02
:10122000991F0A94E2F7809584238C9329C0A5E343
:10123000B0E0E5E3F0E08081482F8A81282F30E09C
:1012400081E090E0022E02C0880F991F0A94E2F715
:10125000809584238C9314C0A2E3B0E0E2E3F0E035
:101260008081482F8A81282F30E081E090E0022E93
:1012700002C0880F991F0A94E2F7809584238C930B
:101280000F900F900F900F900F90CF91DF910895D6
:10129000DF93CF93CDB7DEB727970FB6F894DEBFB5
:1012A0000FBECDBF8D838D8187708C838D81869598
:1012B000869586958B838B81282F30E03F832E8304
:1012C0004E815F814130510541F18E819F81823095
:1012D000910534F42E813F812115310561F052C012
:1012E0004E815F814230510551F18E819F81833063
:1012F0009105B9F147C0E9E3F0E08081282F30E0A3
:101300008C81882F90E0A90102C0559547958A9558
:10131000E2F7CA0181708A8335C0E6E3F0E080819C
:10132000282F30E08C81882F90E0A90102C05595CC
:1013300047958A95E2F7CA0181708A8323C0E3E367
:10134000F0E08081282F30E08C81882F90E0A90187
:1013500002C0559547958A95E2F7CA0181708A8344
:1013600011C0E0E3F0E08081282F30E08C81882FED
:1013700090E0A90102C0559547958A95E2F7CA0108
:1013800081708A838A81882311F4198205C08A8139
:10139000813011F481E08983898127960FB6F89412
:1013A000DEBF0FBECDBFCF91DF910895DF93CF9306
:1013B000CDB7DEB7A5E5B0E0E5E5F0E080818D7F53
:1013C0008C93A5E5B0E0E5E5F0E0808181608C9349
:1013D000CF91DF910895DF93CF93CDB7DEB7CF9153
:1013E000DF910895DF93CF930F92CDB7DEB71982C7
:1013F00050C18981882F90E0880F991FFC01EE5D14
:10140000FE4F118210828981282F30E0C901880F98
:10141000991F880F991F880F991F820F931FFC0136
:10142000E852FF4F8081882309F030C18981282F3D
:1014300030E0C901880F991F880F991F880F991FE5
:10144000820F931FFC01EC52FF4F80810E94BD0868
:101450008981282F30E0C901880F991F880F991FB3
:10146000880F991F820F931FFC01EB52FF4F808161
:101470000E9437088981282F30E0C901880F991F01
:10148000880F991F880F991F820F931FFC01EA5242
:10149000FF4F80810E9437088981282F30E0C901E1
:1014A000880F991F880F991F880F991F820F931F0C
:1014B000FC01E952FF4F80810E943708898160E07A
:1014C0000E948C0B8981282F30E0C901880F991F59
:1014D000880F991F880F991F820F931FFC01EC52F0
:1014E000FF4F80810E9437088981282F30E0C90191
:1014F000880F991F880F991F880F991F820F931FBC
:10150000FC01EB52FF4F80810E94BD088981282F8A
:1015100030E0C901880F991F880F991F880F991F04
:10152000820F931FFC01EA52FF4F80810E9437080F
:101530008981282F30E0C901880F991F880F991FD2
:10154000880F991F820F931FFC01E952FF4F808182
:101550000E943708898161E00E948C0B8981282FC5
:1015600030E0C901880F991F880F991F880F991FB4
:10157000820F931FFC01EC52FF4F80810E943708BD
:101580008981282F30E0C901880F991F880F991F82
:10159000880F991F820F931FFC01EB52FF4F808130
:1015A0000E9437088981282F30E0C901880F991FD0
:1015B000880F991F880F991F820F931FFC01EA5211
:1015C000FF4F80810E94BD088981282F30E0C9012A
:1015D000880F991F880F991F880F991F820F931FDB
:1015E000FC01E952FF4F80810E943708898162E047
:1015F0000E948C0B8981282F30E0C901880F991F28
:10160000880F991F880F991F820F931FFC01EC52BE
:10161000FF4F80810E9437088981282F30E0C9015F
:10162000880F991F880F991F880F991F820F931F8A
:10163000FC01EB52FF4F80810E9437088981282FDF
:1016400030E0C901880F991F880F991F880F991FD3
:10165000820F931FFC01EA52FF4F80810E943708DE
:101660008981282F30E0C901880F991F880F991FA1
:10167000880F991F820F931FFC01E952FF4F808151
:101680000E94BD08898163E00E948C0B89818F5F75
:1016900089839091D9008981891708F4AACE0F9087
:1016A000CF91DF910895DF93CF9300D00F92CDB704
:1016B000DEB78B8380E189831A821EC08B81882FDD
:1016C00090E0880F991FFC01EE5DFE4F2081318173
:1016D0008A81882F90E0A90102C0569547958A9586
:1016E000E2F7CA0181709070882319F08A8189839A
:1016F00006C08A818F5F8A838A818031F8F289816E
:10170000882F90E0FC01E054FF4F80810F900F90F4
:101710000F90CF91DF910895DF93CF9300D0CDB795
:10172000DEB789836A838981282F30E0C901880F59
:10173000991F880F991F880F991F820F931FFC0113
:10174000E852FF4F8081882309F0E1C08981282F6A
:1017500030E0C901880F991F880F991F880F991FC2
:10176000820F931FFC01E053FF4F80810E944809C4
:10177000882311F58981682F70E08981882F90E096
:10178000880F991FFC01EE5DFE4F408151818A81D7
:10179000282F30E081E090E002C0880F991F2A9541
:1017A000E2F79A01282B392BCB01880F991FFC01F6
:1017B000EE5DFE4F318320838981282F30E0C901FF
:1017C000880F991F880F991F880F991F820F931FE9
:1017D000FC01EF52FF4F80810E944809882329F5C0
:1017E0008981682F70E08981882F90E0880F991F88
:1017F000FC01EE5DFE4F408151818A81882F90E08F
:101800009C012C5F3F4F81E090E002C0880F991F40
:101810002A95E2F79A01282B392BCB01880F991FC3
:10182000FC01EE5DFE4F318320838981282F30E05B
:10183000C901880F991F880F991F880F991F820F60
:10184000931FFC01EE52FF4F80810E9448098823BC
:1018500029F58981682F70E08981882F90E0880FB1
:10186000991FFC01EE5DFE4F408151818A81882FD6
:1018700090E09C01285F3F4F81E090E002C0880F1C
:10188000991F2A95E2F79A01282B392BCB01880F53
:10189000991FFC01EE5DFE4F318320838981282F43
:1018A00030E0C901880F991F880F991F880F991F71
:1018B000820F931FFC01ED52FF4F80810E94480967
:1018C000882329F58981682F70E08981882F90E02D
:1018D000880F991FFC01EE5DFE4F408151818A8186
:1018E000882F90E09C01245F3F4F81E090E002C090
:1018F000880F991F2A95E2F79A01282B392BCB01E3
:10190000880F991FFC01EE5DFE4F318320830F90FD
:101910000F90CF91DF910895DF93CF9300D0CDB793
:10192000DEB78A838A81882F90E0880F991FFC0197
:10193000EE5DFE4F80819181009711F4198202C003
:1019400081E0898389810F900F90CF91DF91089575
:101950000F931F93DF93CF93CDB7DEB7CA54D04018
:101960000FB6F894DEBF0FBECDBFFE01E85BFF4FA0
:101970008083FE01E75BFF4F6083FE01E65BFF4F64
:101980004083FE01E75BFF4F80818823B1F4FE01B5
:10199000E85BFF4F8081282F30E0C901880F991F35
:1019A000820F931F880F991F880F991FFC01E65221
:1019B000FF4F80810E94BD081BC0FE01E75BFF4F07
:1019C00080818130A9F4FE01E85BFF4F8081282FE0
:1019D00030E0C901880F991F820F931F880F991F4C
:1019E000880F991FFC01E652FF4F80810E94370843
:1019F000FE01E85BFF4F8081282F30E0C901880F8E
:101A0000991F820F931F880F991F880F991FFC0140
:101A1000E552FF4F80810E94BD08FE01E85BFF4F49
:101A20008081282F30E0C901880F991F820F931FF2
:101A3000880F991F880F991FFC01EB51FF4F808180
:101A4000882309F0C5C2FE01E95BFF4F84E0808373
:101A500072C0FE01E65BFF4F8081282F30E0FE015F
:101A6000E95BFF4F8081882F90E0A90102C0559566
:101A700047958A95E2F7CA01817090708823F1F04A
:101A8000FE01E85BFF4F8081282F30E0FE01E95B1B
:101A9000FF4F8081482F50E0C901880F991F820FA6
:101AA000931F880F991F880F991F840F951FFC01A2
:101AB000E352FF4F80810E94370834C0FE01E65B8D
:101AC000FF4F8081282F30E0FE01E95BFF4F8081CE
:101AD000882F90E0F90102C0F595E7958A95E2F725
:101AE000CF01817090700097E9F4FE01E85BFF4F31
:101AF0008081282F30E0FE01E95BFF4F8081482F75
:101B000050E0C901880F991F820F931F880F991FFA
:101B1000880F991F840F951FFC01E352FF4F8081AE
:101B20000E94BD08DE01A95BBF4FFE01E95BFF4FCC
:101B300080818F5F8C93FE01E95BFF4F808188304D
:101B400008F487CFFE01E85BFF4F8081282F30E04B
:101B5000C901880F991F820F931F880F991F019643
:101B6000880F991FFC01E652FF4F80810E943708C1
:101B7000FE01ED5BFF4F80E090E0A0E8BFE38083D3
:101B80009183A283B3838E01015C1F4FFE01ED5B45
:101B9000FF4F608171818281938120E030E04AE7CC
:101BA00055E40E941F02DC01CB01F8018083918380
:101BB000A283B383FE01FF9660817181828193814C
:101BC00020E030E040E85FE30E94250488232CF405
:101BD00081E090E09EAF8DAF46C0FE01FF96608130
:101BE00071818281938120E03FEF4FE757E40E94AB
:101BF000C503181664F5FE01ED5BFF4F608171812E
:101C00008281938120E030E040E251E40E941F0293
:101C1000DC01CB01BC01CD010E944900DC01CB01FC
:101C20009EAF8DAF0FC080E991E09CAF8BAF8BADC5
:101C30009CAD0197F1F79CAF8BAF8DAD9EAD019739
:101C40009EAF8DAF8DAD9EAD009769F716C0FE01BA
:101C5000FF9660817181828193810E944900DC013D
:101C6000CB019EAF8DAF8DAD9EAD9AAF89AF89ADE3
:101C70009AAD0197F1F79AAF89AFFE01E85BFF4F8C
:101C80008081282F30E0C901880F991F820F931F90
:101C9000880F991F0196880F991FFC01E652FF4F8C
:101CA00080810E94BD08FE01E95BFF4F108278C071
:101CB000FE01E65BFF4F8081282F30E0FE01E95BEB
:101CC000FF4F8081882F90E0A90102C0559547956C
:101CD0008A95E2F7CA0181709070882309F1FE01AC
:101CE000E85BFF4F8081282F30E0FE01E95BFF4F6A
:101CF0008081882F90E0AC014C5F5F4FC901880F55
:101D0000991F820F931F880F991F880F991F840FA7
:101D1000951FFC01E352FF4F80810E94370837C0B6
:101D2000FE01E65BFF4F8081282F30E0FE01E95B7A
:101D3000FF4F8081882F90E0F90102C0F595E7956B
:101D40008A95E2F7CF0181709070009701F5FE014E
:101D5000E85BFF4F8081282F30E0FE01E95BFF4FF9
:101D60008081882F90E0AC014C5F5F4FC901880FE4
:101D7000991F820F931F880F991F880F991F840F37
:101D8000951FFC01E352FF4F80810E94BD08DE01D8
:101D9000A95BBF4FFE01E95BFF4F80818F5F8C9392
:101DA000FE01E95BFF4F8081843008F481CFFE01A2
:101DB000E85BFF4F8081282F30E0C901880F991F11
:101DC000820F931F880F991F0196880F991FFC019E
:101DD000E652FF4F80810E94370880E090E0A0E843
:101DE000BFE38DAB9EABAFABB8AF6DA97EA98FA99A
:101DF00098AD20E030E04AE755E40E941F02DC0184
:101E0000CB0189AB9AABABABBCAB69A97AA98BA967
:101E10009CA920E030E040E85FE30E94250488238D
:101E20002CF481E090E098AB8FA73FC069A97AA914
:101E30008BA99CA920E03FEF4FE757E40E94C50320
:101E400018164CF56DA97EA98FA998AD20E030E059
:101E500040E251E40E941F02DC01CB01BC01CD0134
:101E60000E944900DC01CB0198AB8FA70FC080E92D
:101E700091E09EA78DA78DA59EA50197F1F79EA73E
:101E80008DA78FA598A9019798AB8FA78FA598A923
:101E9000009769F714C069A97AA98BA99CA90E9427
:101EA0004900DC01CB0198AB8FA78FA598A99CA70F
:101EB0008BA78BA59CA50197F1F79CA78BA7FE018B
:101EC000E85BFF4F8081282F30E0C901880F991F00
:101ED000820F931F880F991F0196880F991FFC018D
:101EE000E652FF4F80810E94BD0880E090E0A0E8AC
:101EF000BFE38FA398A7A9A7BAA76FA178A589A5C3
:101F00009AA520E030E04AE755E40E941F02DC0178
:101F1000CB018BA39CA3ADA3BEA36BA17CA18DA180
:101F20009EA120E030E040E85FE30E942504882382
:101F30002CF481E090E09AA389A33FC06BA17CA11F
:101F40008DA19EA120E03FEF4FE757E40E94C5031B
:101F500018164CF56FA178A589A59AA520E030E068
:101F600040E251E40E941F02DC01CB01BC01CD0123
:101F70000E944900DC01CB019AA389A30FC080E92C
:101F800091E098A38F8F8F8D98A10197F1F798A377
:101F90008F8F89A19AA101979AA389A389A19AA158
:101FA000009769F7B9C16BA17CA18DA19EA10E9488
:101FB0004900DC01CB019AA389A389A19AA19E8F34
:101FC0008D8F8D8D9E8D0197F1F79E8F8D8FA4C182
:101FD000FE01E85BFF4F8081282F30E0C901880FA8
:101FE000991F820F931F880F991F880F991FFC015B
:101FF000EB51FF4F8081813009F08EC1FE01E95B1A
:10200000FF4F108272C0FE01E65BFF4F8081282FD8
:1020100030E0FE01E95BFF4F8081882F90E0A9014D
:1020200002C0559547958A95E2F7CA018170907074
:102030008823F1F0FE01E85BFF4F8081282F30E01C
:10204000FE01E95BFF4F8081482F50E0C901880FF6
:10205000991F820F931F880F991F880F991F840F54
:10206000951FFC01E352FF4F80810E94370834C066
:10207000FE01E65BFF4F8081282F30E0FE01E95B27
:10208000FF4F8081882F90E0F90102C0F595E79518
:102090008A95E2F7CF01817090700097E9F4FE0114
:1020A000E85BFF4F8081282F30E0FE01E95BFF4FA6
:1020B0008081482F50E0C901880F991F820F931F1C
:1020C000880F991F880F991F840F951FFC01E352F9
:1020D000FF4F80810E94BD08DE01A95BBF4FFE015A
:1020E000E95BFF4F80818F5F8C93FE01E95BFF4FBF
:1020F0008081883008F487CFFE01E85BFF4F808144
:10210000282F30E0C901880F991F820F931F880F75
:10211000991F0196880F991FFC01E652FF4F80819D
:102120000E94370880E090E0A0E8BFE3898F9A8F93
:10213000AB8FBC8F698D7A8D8B8D9C8D20E030E0CC
:102140004AE755E40E941F02DC01CB018D8B9E8B78
:10215000AF8BB88F6D897E898F89988D20E030E0B4
:1021600040E85FE30E94250488232CF481E090E09E
:102170009C8B8B8B3FC06D897E898F89988D20E0E9
:102180003FEF4FE757E40E94C50318164CF5698DE1
:102190007A8D8B8D9C8D20E030E040E251E40E94EE
:1021A0001F02DC01CB01BC01CD010E944900DC0112
:1021B000CB019C8B8B8B0FC080E991E09A8B898B34
:1021C00089899A890197F1F79A8B898B8B899C89E8
:1021D00001979C8B8B8B8B899C89009769F714C026
:1021E0006D897E898F89988D0E944900DC01CB0121
:1021F0009C8B8B8B8B899C89988B8F878F859889FB
:102200000197F1F7988B8F87FE01E85BFF4F808184
:10221000282F30E0C901880F991F820F931F880F64
:10222000991F0196880F991FFC01E652FF4F80818C
:102230000E94BD0880E090E0A0E8BFE38B879C8708
:10224000AD87BE876B857C858D859E8520E030E0DF
:102250004AE755E40E941F02DC01CB018F83988777
:10226000A987BA876F81788589859A8520E030E0D3
:1022700040E85FE30E94250488232CF481E090E08D
:102280009E838D833FC06F81788589859A8520E004
:102290003FEF4FE757E40E94C50318164CF56B85D6
:1022A0007C858D859E8520E030E040E251E40E94EF
:1022B0001F02DC01CB01BC01CD010E944900DC0101
:1022C000CB019E838D830FC080E991E09C838B833B
:1022D0008B819C810197F1F79C838B838D819E81FB
:1022E00001979E838D838D819E81009769F714C02D
:1022F0006F81788589859A850E944900DC01CB0130
:102300009E838D838D819E819A83898389819A8121
:102310000197F1F79A838983C65BDF4F0FB6F89474
:10232000DEBF0FBECDBFCF91DF911F910F910895FA
:102330000F931F93DF93CF93CDB7DEB7C954D0402F
:102340000FB6F894DEBF0FBECDBFFE01E75BFF4FB7
:102350001082BDC2FE01E75BFF4F8081282F30E075
:10236000C901880F991F820F931F880F991F880F2B
:10237000991FFC01EB51FF4F80818823C9F4FE01B6
:10238000E75BFF4F808160E043E20E94A80CFE0102
:10239000E75BFF4F808160E042E20E94A80CFE01F3
:1023A000E75BFF4F808160E048E20E94A80C1DC0FF
:1023B000FE01E75BFF4F8081282F30E0C901880FC5
:1023C000991F820F931F880F991F880F991FFC0177
:1023D000EB51FF4F8081813041F4FE01E75BFF4FFD
:1023E000808160E048E30E94A80CFE01EB5BFF4F98
:1023F00080E090E0A0E2B2E480839183A283B38383
:102400008E010F5B1F4FFE01EB5BFF4F60817181FF
:10241000828193812BEA3AEA4AEA50E40E941F0241
:10242000DC01CB01F80180839183A283B383FE0199
:10243000EF5BFF4F608171818281938120E030E00A
:1024400040E85FE30E942504882334F481E0FE0124
:10245000E05CFF4F80839DC0FE01EF5BFF4F60811A
:1024600071818281938120E030E04FE753E40E9444
:10247000C50318160CF07EC0FE01EB5BFF4F6081B8
:1024800071818281938120E030E04AE754E40E9428
:102490001903DC01CB018CAF9DAFAEAFBFAF6CAD0C
:1024A0007DAD8EAD9FAD20E030E04AE755E40E945F
:1024B0001F02DC01CB0188AF99AFAAAFBBAF68ADFB
:1024C00079AD8AAD9BAD20E030E040E85FE30E944B
:1024D000250488232CF481E090E09FAB8EAB3FC0B5
:1024E00068AD79AD8AAD9BAD20E03FEF4FE757E493
:1024F0000E94C50318164CF56CAD7DAD8EAD9FAD39
:1025000020E030E040E251E40E941F02DC01CB01F8
:10251000BC01CD010E944900DC01CB019FAB8EAB19
:102520000FC080E991E09DAB8CAB8CA99DA9019770
:10253000F1F79DAB8CAB8EA99FA901979FAB8EAB9A
:102540008EA99FA9009769F72DC068AD79AD8AADB6
:102550009BAD0E944900DC01CB019FAB8EAB8EA9E5
:102560009FA99BAB8AAB8AA99BA90197F1F79BAB6B
:102570008AAB18C0FE01EF5BFF4F608171818281E1
:1025800093810E944900DC01CB01FE01E05CFF4F1A
:102590008083FE01E05CFF4F808189AB89A98A9529
:1025A000F1F789ABFE01E75BFF4F808160E04EE011
:1025B0000E94A80C80E090E0A0E2B2E48DA79EA764
:1025C000AFA7B8AB6DA57EA58FA598A92BEA3AEA6F
:1025D0004AEA50E40E941F02DC01CB0189A79AA7B6
:1025E000ABA7BCA769A57AA58BA59CA520E030E088
:1025F00040E85FE30E94250488231CF481E088A75B
:1026000091C069A57AA58BA59CA520E030E04FE795
:1026100053E40E94C50318160CF07BC06DA57EA57F
:102620008FA598A920E030E04AE754E40E941903FE
:10263000DC01CB018CA39DA3AEA3BFA36CA17DA1A4
:102640008EA19FA120E030E04AE755E40E941F02DE
:10265000DC01CB0188A399A3AAA3BBA368A179A19C
:102660008AA19BA120E030E040E85FE30E942504BE
:1026700088232CF481E090E09F8F8E8F3FC068A16B
:1026800079A18AA19BA120E03FEF4FE757E40E9488
:10269000C50318164CF56CA17DA18EA19FA120E069
:1026A00030E040E251E40E941F02DC01CB01BC019A
:1026B000CD010E944900DC01CB019F8F8E8F0FC09E
:1026C00080E991E09D8F8C8F8C8D9D8D0197F1F726
:1026D0009D8F8C8F8E8D9F8D01979F8F8E8F8E8D6E
:1026E0009F8D009769F724C068A179A18AA19BA159
:1026F0000E944900DC01CB019F8F8E8F8E8D9F8DB4
:102700009B8F8A8F8A8D9B8D0197F1F79B8F8A8F84
:102710000FC069A57AA58BA59CA50E944900DC0184
:10272000CB0188A788A5898F898D8A95F1F7898F34
:10273000FE01E75BFF4F808160E041E00E94A80C52
:1027400080E090E0A0E2B2E48D8B9E8BAF8BB88FDF
:102750006D897E898F89988D2BEA3AEA4AEA50E49E
:102760000E941F02DC01CB01898B9A8BAB8BBC8B47
:1027700069897A898B899C8920E030E040E85FE3B1
:102780000E94250488231CF481E0888B91C069890C
:102790007A898B899C8920E030E04FE753E40E94DE
:1027A000C50318160CF07BC06D897E898F89988DC2
:1027B00020E030E04AE754E40E941903DC01CB0139
:1027C0008C879D87AE87BF876C857D858E859F852D
:1027D00020E030E04AE755E40E941F02DC01CB0113
:1027E00088879987AA87BB87688579858A859B852D
:1027F00020E030E040E85FE30E94250488232CF4C9
:1028000081E090E09F838E833FC0688579858A85CB
:102810009B8520E03FEF4FE757E40E94C503181661
:102820004CF56C857D858E859F8520E030E040E20B
:1028300051E40E941F02DC01CB01BC01CD010E94CA
:102840004900DC01CB019F838E830FC080E991E0BA
:102850009D838C838C819D810197F1F79D838C836F
:102860008E819F8101979F838E838E819F810097A8
:1028700069F724C0688579858A859B850E9449000F
:10288000DC01CB019F838E838E819F819B838A8312
:102890008A819B810197F1F79B838A830FC06989A5
:1028A0007A898B899C890E944900DC01CB01888B45
:1028B0008889898389818A95F1F78983DE01A75BFD
:1028C000BF4FFE01E75BFF4F80818F5F8C9380914C
:1028D000F200FE01E75BFF4F9081981708F43ACDB4
:1028E000C75BDF4F0FB6F894DEBF0FBECDBFCF91F1
:1028F000DF911F910F910895DF93CF9300D000D007
:10290000CDB7DEB789836A834B832C838B81882F75
:1029100090E0029600249695879507949695879562
:102920000794982F802D982F8C81980F898160E0D3
:10293000492F0E94A80C898161E04A810E94A80C5D
:102940000F900F900F900F90CF91DF910895DF932C
:10295000CF9300D000D000D0CDB7DEB78A837C8380
:102960006B834D832E8319828D81882F90E0029690
:102970000024969587950794969587950794982FA8
:10298000802D982F8E81980F8A8160E0492F0E94B8
:10299000A80C11C08981282F30E08B819C81FC011B
:1029A000E20FF31F90818A8161E0492F0E94A80CF9
:1029B00089818F5F89838981282F30E08B819C8179
:1029C000FC01E20FF31F8081882321F726960FB6C2
:1029D000F894DEBF0FBECDBFCF91DF910895DF9396
:1029E000CF930F92CDB7DEB789838981882F90E08E
:1029F000880F991FFC01EC50FF4F8081882361F400
:102A00008981882F90E0880F991FFC01ED50FF4FBE
:102A100080810E9437080BC08981882F90E0880F41
:102A2000991FFC01ED50FF4F80810E94BD080F905F
:102A3000CF91DF910895DF93CF930F92CDB7DEB79B
:102A400089838981882F90E0880F991FFC01EC50C1
:102A5000FF4F8081882361F48981882F90E0880F5F
:102A6000991FFC01ED50FF4F80810E94BD080BC0F3
:102A70008981882F90E0880F991FFC01ED50FF4F4E
:102A800080810E9437080F90CF91DF910895DF93E6
:102A9000CF93CDB7DEB762970FB6F894DEBF0FBE07
:102AA000CDBF0E944F060E9473200E949811AEE491
:102AB000B0E0EEE4F0E080818D608C93EBE4F0E038
:102AC00089E0808386E00E946A1F8CE00E946A1F72
:102AD0000E945C1F80913C019AE0692F0E943D2179
:102AE000882F90E09E012B5F3F4FB9014AE050E0F4
:102AF0000E9480219E012B5F3F4F80E0B90140E0A2
:102B000020E00E94A71480913C019AE0692F0E9466
:102B10003D21892F882F90E09E012B5F3F4FB90107
:102B20004AE050E00E9480219E012B5F3F4F80E0F1
:102B3000B90140E021E00E94A71420E630E080E0E7
:102B4000B90140E022E00E94A71480913B019AE085
:102B5000692F0E943D21882F90E09E012D5F3F4FFD
:102B6000B9014AE050E00E9480219E012D5F3F4F55
:102B700080E0B90140E023E00E94A71480913B016E
:102B80009AE0692F0E943D21892F882F90E09E01B5
:102B90002D5F3F4FB9014AE050E00E9480219E0125
:102BA0002D5F3F4F80E0B90140E024E00E94A71470
:102BB00020E630E080E0B90140E025E00E94A71463
:102BC00080913A019AE0692F0E943D21882F90E080
:102BD0009E012F5F3F4FB9014AE050E00E948021E3
:102BE00080E09E012F5F3F4FB90140E026E00E9448
:102BF000A71480913A019AE0692F0E943D21892F04
:102C0000882F90E09E012F5F3F4FB9014AE050E0CE
:102C10000E94802180E09E012F5F3F4FB90140E07C
:102C200027E00E94A7148EE00E9448098130C1F578
:102C300022E630E080E0B90140E029E00E94A714DC
:102C400090913F0180913C011A8A981711F421E07C
:102C50002A8B90913E0180913B01198A981711F4BB
:102C600031E0398B8A8999898923282F30E0388B84
:102C70002F8790913D0180913A011E861D869817FD
:102C800021F481E090E09E878D878F8598892D853E
:102C90003E8582239323009719F083E00E94370832
:102CA0008EE00E944809882359F42AE630E080E04B
:102CB000B90140E029E00E94A71483E00E94BD080A
:102CC00022E730E080E0B90141E020E00E94A71453
:102CD00080913F019AE0692F0E943D21882F90E06A
:102CE0009E01255F3F4FB9014AE050E00E948021DC
:102CF0009E01255F3F4F80E0B90141E027E00E943F
:102D0000A71480913F019AE0692F0E943D21892FED
:102D1000882F90E09E01255F3F4FB9014AE050E0C7
:102D20000E9480219E01255F3F4F80E0B90141E074
:102D300028E00E94A71420E630E080E0B90141E0DD
:102D400029E00E94A71480913E019AE0692F0E9419
:102D50003D21882F90E09E01275F3F4FB9014AE057
:102D600050E00E9480219E01275F3F4F80E0B90123
:102D700041E02AE00E94A71480913E019AE0692F69
:102D80000E943D21892F882F90E09E01275F3F4FB1
:102D9000B9014AE050E00E9480219E01275F3F4F29
:102DA00080E0B90141E02BE00E94A71420E630E06A
:102DB00080E0B90141E02CE00E94A71480913D0120
:102DC0009AE0692F0E943D21882F90E09E01295FA3
:102DD0003F4FB9014AE050E00E9480219E01295FE7
:102DE0003F4F80E0B90141E02DE00E94A71480919F
:102DF0003D019AE0692F0E943D21892F882F90E0A4
:102E00009E01295F3F4FB9014AE050E00E948021B6
:102E10009E01295F3F4F80E0B90141E02EE00E9412
:102E2000A71458CEDF93CF93CDB7DEB7809136018C
:102E300090913701A0913801B09139010196A11DFF
:102E4000B11D8093360190933701A0933801B09360
:102E500039018091360190913701A0913801B091EC
:102E6000390189302DE3920720E0A20720E0B20764
:102E700049F51092360110923701109238011092E4
:102E8000390180913A018F5F80933A0180913A0134
:102E90008C33C0F010923A0180913B018F5F809398
:102EA0003B0180913B018C3368F010923B01809193
:102EB0003C018F5F80933C0180913C01883111F48B
:102EC00010923C01CF91DF9108950F931F93DF93F0
:102ED000CF93CDB7DEB7C85AD0400FB6F894DEBF57
:102EE0000FBECDBF0E944E1FEBE2F0E08081882331
:102EF000DCF7ECE2F0E080818093440180914401B2
:102F0000813009F076C180913B018C3309F0B7C064
:102F100010923B01FE01EB55FF4F80E090E0ACE5E5
:102F2000B3E480839183A283B3838E010F551F4F37
:102F3000FE01EB55FF4F608171818281938120E01A
:102F400030E04AE755E40E941F02DC01CB01F801A2
:102F500080839183A283B383FE01EF55FF4F60818D
:102F600071818281938120E030E040E85FE30E943C
:102F70002504882344F4FE01E156FF4F81E090E0F0
:102F80009183808364C0FE01EF55FF4F60817181A2
:102F90008281938120E03FEF4FE757E40E94C50311
:102FA00018160CF043C0FE01EB55FF4F6081718194
:102FB0008281938120E030E040E251E40E941F02D0
:102FC000DC01CB018E0101561F4FBC01CD010E94D7
:102FD0004900DC01CB01F801918380831FC0FE0111
:102FE000E356FF4F80E991E091838083FE01E35631
:102FF000FF4F808191810197F1F7FE01E356FF4F6A
:1030000091838083DE01A156BF4FFE01E156FF4F41
:1030100080819181019711969C938E93FE01E156D8
:10302000FF4F808191810097D1F62EC08E0101560D
:103030001F4FFE01EF55FF4F6081718182819381A7
:103040000E944900DC01CB01F80191838083DE01FD
:10305000A556BF4FFE01E156FF4F80819181119629
:103060009C938E93FE01E556FF4F808191810197DD
:10307000F1F7FE01E556FF4F9183808305C08091F3
:103080003B018F5F80933B01FE01E956FF4F80E0DB
:1030900090E0ACE5B3E480839183A283B3838E0197
:1030A0000D561F4FFE01E956FF4F608171818281ED
:1030B000938120E030E04AE755E40E941F02DC01E2
:1030C000CB01F80180839183A283B383FE01ED5687
:1030D000FF4F608171818281938120E030E040E880
:1030E0005FE30E942504882344F4FE01EF56FF4F5E
:1030F00081E090E09183808364C0FE01ED56FF4F34
:10310000608171818281938120E03FEF4FE757E436
:103110000E94C50318160CF043C0FE01E956FF4F8C
:10312000608171818281938120E030E040E251E44E
:103130000E941F02DC01CB018E010F561F4FBC0104
:10314000CD010E944900DC01CB01F801918380830D
:103150001FC0FE01E157FF4F80E991E0918380831A
:10316000FE01E157FF4F808191810197F1F7FE0148
:10317000E157FF4F91838083DE01AF56BF4FFE01C1
:10318000EF56FF4F80819181019711969C938E930A
:10319000FE01EF56FF4F808191810097D1F672C6F4
:1031A0008E010F561F4FFE01ED56FF4F608171815A
:1031B000828193810E944900DC01CB01F801918357
:1031C0008083DE01A357BF4FFE01EF56FF4F808182
:1031D000918111969C938E93FE01E357FF4F80815E
:1031E00091810197F1F7FE01E357FF4F91838083AF
:1031F00049C6809144018A3009F0BFC080913B01EB
:10320000882309F4BAC080913B01815080933B012F
:10321000FE01E757FF4F80E090E0ACE5B3E4808328
:103220009183A283B3838E010B571F4FFE01E75793
:10323000FF4F608171818281938120E030E04AE715
:1032400055E40E941F02DC01CB01F80180839183C9
:10325000A283B383FE01EB57FF4F608171818281AE
:10326000938120E030E040E85FE30E94250488235A
:1032700044F4FE01ED57FF4F81E090E0918380839D
:1032800064C0FE01EB57FF4F6081718182819381A1
:1032900020E03FEF4FE757E40E94C50318160CF0FB
:1032A00043C0FE01E757FF4F6081718182819381A6
:1032B00020E030E040E251E40E941F02DC01CB013B
:1032C0008E010D571F4FBC01CD010E944900DC014A
:1032D000CB01F801918380831FC0FE01EF57FF4FA0
:1032E00080E991E091838083FE01EF57FF4F808159
:1032F00091810197F1F7FE01EF57FF4F9183808392
:10330000DE01AD57BF4FFE01ED57FF4F8081918128
:10331000019711969C938E93FE01ED57FF4F80818C
:1033200091810097D1F6AEC58E010D571F4FFE015A
:10333000EB57FF4F60817181828193810E94490028
:10334000DC01CB01F80191838083DE01A158BF4FDE
:10335000FE01ED57FF4F8081918111969C938E93D2
:10336000FE01E158FF4F808191810197F1F7FE0145
:10337000E158FF4F9183808385C58091440183305C
:1033800009F076C180913C01883109F0B7C01092F4
:103390003C01FE01E558FF4F80E090E0ACE5B3E46E
:1033A00080839183A283B3838E0109581F4FFE014E
:1033B000E558FF4F608171818281938120E030E088
:1033C0004AE755E40E941F02DC01CB01F80180832B
:1033D0009183A283B383FE01E958FF4F608171811D
:1033E0008281938120E030E040E85FE30E94250481
:1033F000882344F4FE01EB58FF4F81E090E0918375
:10340000808364C0FE01E958FF4F60817181828131
:10341000938120E03FEF4FE757E40E94C503181661
:103420000CF043C0FE01E558FF4F6081718182813D
:10343000938120E030E040E251E40E941F02DC0171
:10344000CB018E010B581F4FBC01CD010E944900DA
:10345000DC01CB01F801918380831FC0FE01ED5890
:10346000FF4F80E991E091838083FE01ED58FF4F8B
:10347000808191810197F1F7FE01ED58FF4F918313
:103480008083DE01AB58BF4FFE01EB58FF4F8081B8
:103490009181019711969C938E93FE01EB58FF4FFB
:1034A000808191810097D1F62EC08E010B581F4F5D
:1034B000FE01E958FF4F60817181828193810E94F2
:1034C0004900DC01CB01F80191838083DE01AF5814
:1034D000BF4FFE01EB58FF4F8081918111969C9365
:1034E0008E93FE01EF58FF4F808191810197F1F794
:1034F000FE01EF58FF4F9183808305C080913C010E
:103500008F5F80933C01FE01E359FF4F80E090E024
:10351000ACE5B3E480839183A283B3838E01075922
:103520001F4FFE01E359FF4F6081718182819381BA
:1035300020E030E04AE755E40E941F02DC01CB01A5
:10354000F80180839183A283B383FE01E759FF4F83
:10355000608171818281938120E030E040E85FE307
:103560000E942504882344F4FE01E959FF4F81E0BD
:1035700090E09183808364C0FE01E759FF4F608132
:1035800071818281938120E03FEF4FE757E40E94F1
:10359000C50318160CF043C0FE01E359FF4F6081CC
:1035A00071818281938120E030E040E251E40E9409
:1035B0001F02DC01CB018E0109591F4FBC01CD0157
:1035C0000E944900DC01CB01F801918380831FC078
:1035D000FE01EB59FF4F80E991E091838083FE016A
:1035E000EB59FF4F808191810197F1F7FE01EB5973
:1035F000FF4F91838083DE01A959BF4FFE01E95936
:10360000FF4F80819181019711969C938E93FE01CB
:10361000E959FF4F808191810097D1F633C48E0123
:1036200009591F4FFE01E759FF4F60817181828167
:1036300093810E944900DC01CB01F80191838083D2
:10364000DE01AD59BF4FFE01E959FF4F80819181E5
:1036500011969C938E93FE01ED59FF4F80819181CD
:103660000197F1F7FE01ED59FF4F918380830AC462
:1036700080914401843009F0BFC080913C018823CF
:1036800009F4BAC080913C01815080933C01FE0155
:10369000E15AFF4F80E090E0ACE5B3E48083918392
:1036A000A283B3838E01055A1F4FFE01E15AFF4FDB
:1036B000608171818281938120E030E04AE755E4A6
:1036C0000E941F02DC01CB01F80180839183A28359
:1036D000B383FE01E55AFF4F60817181828193813E
:1036E00020E030E040E85FE30E942504882344F4B2
:1036F000FE01E75AFF4F81E090E09183808364C030
:10370000FE01E55AFF4F608171818281938120E043
:103710003FEF4FE757E40E94C50318160CF043C073
:10372000FE01E15AFF4F608171818281938120E027
:1037300030E040E251E40E941F02DC01CB018E0127
:10374000075A1F4FBC01CD010E944900DC01CB018B
:10375000F801918380831FC0FE01E95AFF4F80E981
:1037600091E091838083FE01E95AFF4F808191812E
:103770000197F1F7FE01E95AFF4F91838083DE0143
:10378000A75ABF4FFE01E75AFF4F808191810197F1
:1037900011969C938E93FE01E75AFF4F8081918191
:1037A0000097D1F66FC38E01075A1F4FFE01E55AED
:1037B000FF4F60817181828193810E944900DC0109
:1037C000CB01F80191838083DE01AB5ABF4FFE012C
:1037D000E75AFF4F8081918111969C938E93FE0151
:1037E000EB5AFF4F808191810197F1F7FE01EB5A6F
:1037F000FF4F9183808346C380914401883009F054
:1038000047C180913E018C3309F0B7C010923E0150
:10381000FE01EF5AFF4F80E090E0ACE5B3E4808317
:103820009183A283B3838E01035B1F4FFE01EF5A86
:10383000FF4F608171818281938120E030E04AE70F
:1038400055E40E941F02DC01CB01F80180839183C3
:10385000A283B383FE01E35BFF4F608171818281AC
:10386000938120E030E040E85FE30E942504882354
:1038700044F4FE01E55BFF4F81E090E0918380839B
:1038800064C0FE01E35BFF4F60817181828193819F
:1038900020E03FEF4FE757E40E94C50318160CF0F5
:1038A00043C0FE01EF5AFF4F608171818281938195
:1038B00020E030E040E251E40E941F02DC01CB0135
:1038C0008E01055B1F4FBC01CD010E944900DC0148
:1038D000CB01F801918380831FC0FE01E75BFF4F9E
:1038E00080E991E091838083FE01E75BFF4F808157
:1038F00091810197F1F7FE01E75BFF4F9183808390
:10390000DE01A55BBF4FFE01E55BFF4F808191812A
:10391000019711969C938E93FE01E55BFF4F80818A
:1039200091810097D1F62EC08E01055B1F4FFE01DD
:10393000E35BFF4F60817181828193810E94490026
:10394000DC01CB01F80191838083DE01A95BBF4FCD
:10395000FE01E55BFF4F8081918111969C938E93D0
:10396000FE01E95BFF4F808191810197F1F7FE0134
:10397000E95BFF4F9183808305C080913E018F5F9B
:1039800080933E01FE01ED5BFF4F80E090E0ACE5EF
:10399000B3E480839183A283B3838E01015C1F4FC4
:1039A000FE01ED5BFF4F608171818281938120E098
:1039B00030E04AE755E40E941F02DC01CB01F80128
:1039C00080839183A283B383FE01FF96608171811E
:1039D0008281938120E030E040E85FE30E9425048B
:1039E00088232CF481E090E09EAF8DAF46C0FE01AD
:1039F000FF96608171818281938120E03FEF4FE7E4
:103A000057E40E94C503181664F5FE01ED5BFF4FF5
:103A1000608171818281938120E030E040E251E455
:103A20000E941F02DC01CB01BC01CD010E944900B4
:103A3000DC01CB019EAF8DAF0FC080E991E09CAF60
:103A40008BAF8BAD9CAD0197F1F79CAF8BAF8DAD7C
:103A50009EAD01979EAF8DAF8DAD9EAD009769F77E
:103A600011C2FE01FF9660817181828193810E9463
:103A70004900DC01CB019EAF8DAF8DAD9EAD9AAFFD
:103A800089AF89AD9AAD0197F1F79AAF89AFFAC1C5
:103A900080914401823009F07DC080913E018823ED
:103AA00009F478C080913E01815080933E0180E00E
:103AB00090E0ACE5B3E48DAB9EABAFABB8AF6DA916
:103AC0007EA98FA998AD20E030E04AE755E40E9436
:103AD0001F02DC01CB0189AB9AABABABBCAB69A9D4
:103AE0007AA98BA99CA920E030E040E85FE30E941E
:103AF000250488232CF481E090E098AB8FA73FC089
:103B000069A97AA98BA99CA920E03FEF4FE757E468
:103B10000E94C50318164CF56DA97EA98FA998AD12
:103B200020E030E040E251E40E941F02DC01CB01C2
:103B3000BC01CD010E944900DC01CB0198AB8FA7ED
:103B40000FC080E991E09EA78DA78DA59EA5019746
:103B5000F1F79EA78DA78FA598A9019798AB8FA77E
:103B60008FA598A9009769F78DC169A97AA98BA932
:103B70009CA90E944900DC01CB0198AB8FA78FA5BF
:103B800098A99CA78BA78BA59CA50197F1F79CA74B
:103B90008BA778C180914401893009F0F2C08091EF
:103BA0003F01883109F075C010923F0180E090E03C
:103BB000ACE5B3E48FA398A7A9A7BAA76FA178A58E
:103BC00089A59AA520E030E04AE755E40E941F024B
:103BD000DC01CB018BA39CA3ADA3BEA36BA17CA1F5
:103BE0008DA19EA120E030E040E85FE30E94250423
:103BF00088232CF481E090E09AA389A33FC06BA1B5
:103C00007CA18DA19EA120E03FEF4FE757E40E94E9
:103C1000C50318164CF56FA178A589A59AA520E0D3
:103C200030E040E251E40E941F02DC01CB01BC0104
:103C3000CD010E944900DC01CB019AA389A30FC0EA
:103C400080E991E098A38F8F8F8D98A10197F1F76C
:103C500098A38F8F89A19AA101979AA389A389A17B
:103C60009AA1009769F71AC06BA17CA18DA19EA1B2
:103C70000E944900DC01CB019AA389A389A19AA1E2
:103C80009E8F8D8F8D8D9E8D0197F1F79E8F8D8FDD
:103C900005C080913F018F5F80933F0180E090E0FD
:103CA000ACE5B3E4898F9A8FAB8FBC8F698D7A8D29
:103CB0008B8D9C8D20E030E04AE755E40E941F0286
:103CC000DC01CB018D8B9E8BAF8BB88F6D897E898C
:103CD0008F89988D20E030E040E85FE30E94250462
:103CE00088232CF481E090E09C8B8B8B3FC06D8906
:103CF0007E898F89988D20E03FEF4FE757E40E943F
:103D0000C50318164CF5698D7A8D8B8D9C8D20E03E
:103D100030E040E251E40E941F02DC01CB01BC0113
:103D2000CD010E944900DC01CB019C8B8B8B0FC025
:103D300080E991E09A8B898B89899A890197F1F7BB
:103D40009A8B898B8B899C8901979C8B8B8B8B8918
:103D50009C89009769F796C06D897E898F89988DB7
:103D60000E944900DC01CB019C8B8B8B8B899C8949
:103D7000988B8F878F8598890197F1F7988B8F871C
:103D800081C0809144018B3009F07CC080913F015B
:103D9000882309F477C080913F01815080933F01CF
:103DA00080E090E0ACE5B3E48B879C87AD87BE876D
:103DB0006B857C858D859E8520E030E04AE755E463
:103DC0000E941F02DC01CB018F839887A987BA87E5
:103DD0006F81788589859A8520E030E040E85FE34F
:103DE0000E94250488232CF481E090E09E838D833B
:103DF0003FC06F81788589859A8520E03FEF4FE746
:103E000057E40E94C50318164CF56B857C858D859B
:103E10009E8520E030E040E251E40E941F02DC0178
:103E2000CB01BC01CD010E944900DC01CB019E8386
:103E30008D830FC080E991E09C838B838B819C8173
:103E40000197F1F79C838B838D819E8101979E83DF
:103E50008D838D819E81009769F714C06F8178856D
:103E600089859A850E944900DC01CB019E838D8360
:103E70008D819E819A83898389819A810197F1F747
:103E80009A838983C855DF4F0FB6F894DEBF0FBE03
:103E9000CDBFCF91DF911F910F910895DF93CF9305
:103EA000CDB7DEB7AFE5B0E0EFE5F0E080818F772A
:103EB0008C93CF91DF910895DF93CF93CDB7DEB789
:103EC000AFE5B0E0EFE5F0E0808180688C93CF91C2
:103ED000DF910895DF93CF9300D00F92CDB7DEB777
:103EE00089838981282F30E03B832A838A819B81C3
:103EF0008230910551F12A813B812330310554F400
:103F00008A819B81009789F02A813B81213031058C
:103F1000A1F032C08A819B818630910531F12A81DE
:103F20003B8129303105C9F027C0ABE5B0E0EBE5B6
:103F3000F0E0808180648C931FC0ABE5B0E0EBE5DE
:103F4000F0E0808180688C9317C0ABE5B0E0EBE5D2
:103F5000F0E0808180628C930FC0A9E5B0E0E9E5D4
:103F6000F0E0808182608C9307C0A9E5B0E0E9E5CC
:103F7000F0E0808180618C930F900F900F90CF9133
:103F8000DF910895DF93CF9300D00F92CDB7DEB7C6
:103F900089838981282F30E03B832A838A819B8112
:103FA00081309105E9F02A813B81223031052CF4E2
:103FB0008A819B81009761F02AC02A813B8122304F
:103FC0003105B1F08A819B8189309105C9F01FC00C
:103FD000ABE5B0E0EBE5F0E080818F7B8C9317C020
:103FE000ABE5B0E0EBE5F0E080818F778C930FC01C
:103FF000ABE5B0E0EBE5F0E080818F7D8C9307C00E
:10400000A9E5B0E0E9E5F0E080818D7F8C930F9029
:104010000F900F90CF91DF9108951F920F920FB6DE
:104020000F9211242F933F934F935F936F937F933E
:104030008F939F93AF93BF93EF93FF93DF93CF93B0
:10404000CDB7DEB78091060190910701009729F066
:10405000E0910601F09107010995CF91DF91FF9161
:10406000EF91BF91AF919F918F917F916F915F91F0
:104070004F913F912F910F900FBE0F901F90189569
:104080001F920F920FB60F9211242F933F934F93CD
:104090005F936F937F938F939F93AF93BF93EF93B0
:1040A000FF93DF93CF93CDB7DEB78091120190914C
:1040B0001301009729F0E0911201F0911301099585
:1040C000CF91DF91FF91EF91BF91AF919F918F9130
:1040D0007F916F915F914F913F912F910F900FBE04
:1040E0000F901F901895DF93CF930F92CDB7DEB747
:1040F00087E68983E0E4F0E08981882F90E0892FCA
:10410000990F990B8083E9E2F0E089818083EAE2EC
:10411000F0E088E98083E0E4F0E086E880830F90B7
:10412000CF91DF910895DF93CF9300D000D0CDB72A
:10413000DEB79B838A836C8380914001882361F57D
:10414000198213C08981482F50E08981282F30E0DF
:104150008A819B81FC01E20FF31F8081FA01E85BF9
:10416000FE4F808389818F5F898399818C81981725
:1041700048F38C818093410110924701ACE2B0E09A
:1041800080914701882F90E0FC01E85BFE4F808121
:104190008C9381E0809340010F900F900F900F90CF
:1041A000CF91DF910895DF93CF93CDB7DEB78091A4
:1041B00047018F5F809347019091470180914101B2
:1041C000981760F4ACE2B0E080914701882F90E04E
:1041D000FC01E85BFE4F80818C9308C09091470101
:1041E00080914101981710F010924001CF91DF911A
:1041F0000895DF93CF9300D00F92CDB7DEB79A83A7
:1042000089836B8389819A819093460180934501CC
:104210008B818093420181E0809343011092AC0135
:104220000F900F900F90CF91DF910895DF93CF9370
:10423000CDB7DEB7809143018130E1F42091450193
:10424000309146018091AC01882F90E0D901A80FF0
:10425000B91FECE2F0E080818C938091AC018F5F1C
:104260008093AC019091AC0180914201981710F0BD
:1042700010924301CF91DF910895991B79E004C01A
:10428000991F961708F0961B881F7A95C9F7809595
:1042900008952F923F924F925F926F927F928F92EA
:1042A0009F92AF92BF92CF92DF92EF92FF920F93C5
:1042B0001F93CF93DF93CDB7DEB7CA1BDB0B0FB6CF
:1042C000F894DEBF0FBECDBF09942A88398848888C
:1042D0005F846E847D848C849B84AA84B984C88422
:1042E000DF80EE80FD800C811B81AA81B981CE0F19
:1042F000D11D0FB6F894DEBF0FBECDBFED010895FE
:10430000FB019F01E8944230C4F04532B4F44A30D6
:1043100029F497FB1EF4909581959F4F642F772782
:104320000E94B121805D8A330CF0895D8193CB01BD
:104330000097A1F716F45DE251931082C9010C9425
:10434000A121DC01FC01672F71917723E1F73297FE
:1043500004C07C916D9370836291AE17BF07C8F360
:104360000895AA1BBB1B51E107C0AA1FBB1FA617BC
:10437000B70710F0A61BB70B881F991F5A95A9F70E
:0E43800080959095BC01CD010895F894FFCF73
:10438E003A00414C524D3A4F4E00414C4D3A4F4639
:10439E004600414C41524D0000000000000000005C
:1043AE0001000000000000000000000000000000FE
:1043BE0001000000000000000100000001000100EB
:1043CE0001000100010001000000000000000000DB
:1043DE0000000000010000000000000001000000CD
:1043EE003134372A3235383033363923414243445B
:1043FE0000000000000000000001090A0BFFFFFF93
:10440E00FF04050607000C0D0E18191A1B1C1D1EA5
:10441E001F01021B00170012000300000000000025
:10442E000000000000001217000000000000000055
:10443E0000006517000000000000000000000000F2
:02444E0000006C
:00000001FF
